:100000000C944E040C94F0120C94C9120C947604C7
:100010000C9476040C9476040C9476040C94760478
:100020000C9476040C9476040C9476040C94760468
:100030000C9476040C9476040C9476040C94760458
:100040000C947F120C9476040C943D130C941713AB
:100050000C9476040C9476040C9476040C94760438
:100060000C946F130C947604084AD73B3BCE016E78
:1000700084BCBFFDC12F3D6C74319ABD56833DDAFF
:100080003D00C77F11BED9E4BB4C3E916BAAAABE0E
:10009000000000803F05A84CCDB2D44EB93836A937
:1000A000020C50B9918688083CA6AAAA2ABE000074
:1000B00000803F00FB00003E000B00360001000204
:1000C0000003000000650054FFEF0000FA80000B01
:1000D0001282000100020000000000000000000089
:1000E0000000000000280000FFFF4581FFFFFA72BA
:1000F00000000000000003E80000000100017FFF95
:10010000FFFE8001001B0000000000000000000056
:1001100000000000004000004000000002CB47A2A9
:10012000200000002000000000000000400000004F
:100130006000000041FF000000000B2A000016557F
:1001400000002182FD872650FD800000001F000076
:100150000005800000000000000100000002000017
:1001600000030000400000000000046F0002653240
:1001700000005EC040000000000000000000000021
:1001800000000000FB8C6F5DFD5D08D9007C733BB7
:10019000006C12CC3200139D3200D0D63200080021
:1001A000400001F4FFE68079020000000000D0D694
:1001B00000002710FB0000004000000000000000CD
:1001C000000000000000000100000000000001002D
:1001D000010000000000FA36FFBC308E0005FBF085
:1001E000FFD95BC8FFD09ABE000010A9FFF41EB271
:1001F00000CEBBF700000001000000040002000276
:100200000200000CFFC280000001800000CF8000CF
:100210004000000000000000000000000000060098
:1002200000000014000000000000000000000000BA
:1002300000000000000000000000000000000000BE
:10024000000000000923A1350000000000000000AC
:100250000000000000000000033F68B6793528BCAC
:10026000C67ED16C8000FFFF400000000000B26A33
:1002700000000000000000000000000000003FF04F
:10028000000000300000000000000000000000003E
:10029000000000000000000000000000000000005E
:1002A000000040000000254D002F706D000005AEDD
:1002B000000C02D00000000000650054FFEF0000B9
:1002C00000000000000001000044000100058BC197
:1002D0000000010000000000006500000054000064
:1002E000FFEF000000000000000000000000000020
:1002F00000000000000000000000000000000000FE
:1003000000000000000000000000000000000000ED
:1003100000000000000000010000000200000000DA
:1003200000000000000000000000000000000000CD
:1003300000000000000000000000000000000000BD
:1003400000000000001B0000000000000000000092
:10035000000000000000000000000000000000009D
:10036000000000000000000000000000000000008D
:1003700000000000001B0000000000000000000062
:10038000000000000000000000000000000000006D
:10039000000000000000000000000000000000005D
:1003A000000000000000000000000000000000004D
:1003B00000000000D8DCBAA2F1DEB2B8B4A8819186
:1003C000F74A907F916AF3F9DBA8F9B0BAA080F2FE
:1003D000CE81F3C2F1C1F2C3F3CCA2B280F1C6D890
:1003E00080BAA7DFDFDFF2A7C3CBC5B6F087A29440
:1003F0002448703C95406834589B78A2F183922D34
:10040000557DD8B1B4B8A1D09180F270F370F27C70
:1004100080A8F101B09887D943D886C988BAA1F2DB
:100420000EB89780F1A9DFDFDFAADFDFDFF2AA4C89
:10043000CD6CA90CC92C97979797F1A98926466688
:10044000B0B4BA80ACDEF2CAF1B28C02A9B69800A0
:10045000890E161EB8A9B4992C547CB08AA8963679
:100460005676F1B9AFB4B083C0B8A89711B18F98E0
:10047000B9AFF0240844106418F1A329557DAF8367
:10048000B593AFF0002850F1A3869F61A6DADEDFB6
:10049000D9FAA38696DB31A6D9F8DFBAA68FC2C5F2
:1004A000C7B28CC1B8A2DFDFDFA3DFDFDFD8D8F1AE
:1004B000B8A8B286B4980D355DB8AA98B0872D3526
:1004C0003DB2B6BAAF8C96198F9FA70E161EB49A7E
:1004D000B8AA872C547CB9A3DEDFDFA3B180F2C4B5
:1004E000CDC9F1B8A9B499830D355D89B9A32D554E
:1004F0007DB593A30E161EA92C547CB8B4B0F19709
:1005000083A81184A50998A383F0DA240844106411
:1005100018D8F1A529557DA58595021A2E3A565A67
:100520004048F9F3A3D9F8F09883240844106418DC
:100530009782A8F111F098A2240844106418DAF305
:10054000DED883A59401D9A302F1A2C3C5C7D8F10F
:100550008492A24DDA2AD84869D92AD86855DA3265
:10056000D85071D932D8705DDA3AD85879D93AD89A
:100570007893A34DDA2AD84869D92AD86855DA324F
:10058000D85071D932D8705DDA3AD85879D93AD87A
:1005900078A88A9AF02850789EF38818F19F1D98C1
:1005A000A8D908D8C89F129EF315A8DA1210D8F15E
:1005B000AFC8978734B5B994A421F3D922D8F22DC6
:1005C000F3D92AD8F235F3D932D881A4606061D941
:1005D00061D86C6869D969D8747071D971D8B1A3C0
:1005E00084193D5DA3831A3E5E931030811011B8CB
:1005F000B0AF8F94F2DA3ED8B49AA88729DAF8D847
:10060000879A35DAF8D8879A3DDAF8D8B1B9A4983C
:1006100085022E56A581000C14A397B08AF12DD91E
:1006200028D84DD948D86DD968D8B1840DDA0ED8FC
:10063000A32983DA2C0ED8A3844983DA2C4C0ED854
:10064000B8B0A88A9AF520AADADFD8A840AAD0DAEA
:10065000DED8A860AADAD0DFD8F19786A8319B0649
:100660009907AB9728889BF00C201440B8B0B4A829
:100670008C9CF0042851791D301438B282ABD0988C
:100680002C505078789BF11AB0F08A9CA8295179A7
:100690008B2951798A2470598B2058718A44693882
:1006A0008B3940688A6448318B304960A5882009BD
:1006B00071584468113964493019F1AC002C547CEC
:1006C000F08CA804285078F1889726A85998AC8C0B
:1006D00002264666F0899CA82951792470594469FC
:1006E00038644831A98809205970AB11384069A88D
:1006F000193148608CA83C415C207C00F187981936
:1007000086A86E767EA999882D557D9EB9A38A22EA
:100710008A6E8A568A5E9FB183062646660E2E4EE4
:100720006E9DB8AD002C547CF2B18CB499B9A32D58
:10073000557D8191AC38AD3AB58391AC2DD928D88F
:100740004DD948D86DD968D88C9DAE29D904AED87A
:1007500051D904AED879D904D881F39DAD008DAEBE
:100760001981ADD901D8F2AEDA26D88E912983A7A6
:10077000D9ADADADADF32AD8D8F1B0AC89913E5E1C
:1007800076F3AC2E2EF1B18C5A9CAC2C2828289CE8
:10079000AC3018A8988128343C9724A728343C9C76
:1007A00024F2B089AC912C4C6C8A9B2DD9D8D851AD
:1007B000D9D8D879D9D8D8F19E88A331DAD8D891A8
:1007C0002DD928D84DD948D86DD968D8B18393355B
:1007D0003D8025DAD8D88569DAD8D8B49381A328A2
:1007E000343CF3AB8BF8A391B609B4D9ABDEFAB0C5
:1007F000879CB9A3DDF1202830389AF12830389D44
:10080000F1A3A3A3A3F2A3B49080F2A3A3A3A3A3F1
:10081000A3A3A3A3A3B2A3A3A3A3A3A3B087B599A0
:10082000F128303898F1A3A3A3A397A3A3A3A3F31C
:100830009BA330DCB9A7F1262626FED8FF000000D6
:100840000023002600290000000000240027002AC1
:100850000000000000250028002B0004040404040C
:10086000040404020202020202030303030303015D
:100870000204081020408001020408102001020434
:100880000810200000000800020100000304070017
:1008900000000000000000008E14341D11241FBE53
:1008A000CFEFD8E0DEBFCDBF11E0A0E0B1E0E6E2DF
:1008B000F7E402C005900D92A639B107D9F723E0FD
:1008C000A6E9B1E001C01D92AA3CB207E1F714E02D
:1008D000CDE4D4E004C02197FE010E94071FCC3470
:1008E000D107C9F70E9408150C9486230C940000C8
:1008F000833081F028F4813099F08230A9F0089596
:100900008730A9F08830C9F08430B1F4809180003C
:100910008F7D03C0809180008F7780938000089541
:1009200084B58F7784BD089584B58F7DFBCF80918A
:10093000B0008F778093B00008958091B0008F7DD4
:10094000F9CF1F93CF93DF93282F30E0F901ED57B4
:10095000F74F8491F901E159F74FD491F901E55A24
:10096000F74FC491CC23A9F0162F81110E9478046F
:10097000EC2FF0E0EE0FFF1FEF5AF74FA591B49167
:100980008FB7F894EC91111108C0D095DE23DC9359
:100990008FBFDF91CF911F910895DE2BF8CFCF93BA
:1009A000DF9390E0FC01E159F74F2491855A974F6E
:1009B000FC0184918823C9F090E0880F991FFC0105
:1009C000E95BF74FA591B491FC01EF5AF74FC59140
:1009D000D49161110DC09FB7F8948C91209582231A
:1009E0008C938881282328839FBFDF91CF9108951E
:1009F000623051F49FB7F8943C91822F8095832305
:100A00008C93E8812E2BEFCF8FB7F894EC912E2B9F
:100A10002C938FBFEACF1F93CF93DF93182FEB0157
:100A200061E00E94CF04209739F460E0812FDF91CC
:100A3000CF911F910C94A104CF3FD10511F461E037
:100A4000F5CFE12FF0E0ED57F74FE491E33031F1CE
:100A500040F4E130B1F0E230E1F0C038D1057CF78C
:100A6000E4CFE73029F1E83059F1E430B1F7809173
:100A70008000806280938000D0938B00C0938A00B6
:100A800004C084B5806884BDC7BDDF91CF911F913C
:100A9000089584B5806284BDC8BDF7CF8091800081
:100AA000806880938000D0938900C0938800EDCF48
:100AB0008091B00080688093B000C093B300E5CF10
:100AC0008091B00080628093B000C093B400DDCF0D
:100AD0003FB7F8948091800290918102A0918202A8
:100AE000B091830226B5A89B05C02F3F19F001964F
:100AF000A11DB11D3FBFBA2FA92F982F8827BC0178
:100B0000CD01620F711D811D911D42E0660F771F9F
:100B1000881F991F4A95D1F708958F929F92AF929F
:100B2000BF92CF92DF92EF92FF924B015C010E9445
:100B300068056B017C010E9468056C197D098E09AE
:100B40009F09683E734081059105A8F321E0821A50
:100B50009108A108B10888EEC80E83E0D81EE11CF8
:100B6000F11C81149104A104B10429F7FF90EF90C6
:100B7000DF90CF90BF90AF909F908F9008952FB748
:100B8000F89460917C0270917D0280917E02909138
:100B90007F022FBF089581E0809396010895089504
:100BA00008950895AF92BF92CF92DF92EF92FF9295
:100BB0000F931F93CF93DF936C017B018B01040F85
:100BC000151FEB015E01AE18BF08C017D10759F021
:100BD0006991D601ED91FC910190F081E02DC60163
:100BE0000995892B79F7C501DF91CF911F910F915D
:100BF000FF90EF90DF90CF90BF90AF900895FC01F1
:100C0000538D448D252F30E0842F90E0821B930B71
:100C1000541710F0CF96089501970895FC01918D17
:100C2000828D981761F0A28DAE0FBF2FB11D5D961A
:100C30008C91928D9F5F9F73928F90E008958FEFBC
:100C40009FEF0895FC01918D828D981731F0828D70
:100C5000E80FF11D858D90E008958FEF9FEF0895C7
:100C6000FC01918D228D892F90E0805C9F4F821B2B
:100C700091098F739927089586ED92E00E943006BE
:100C800021E0892B09F420E0822F089586ED92E07F
:100C90000E943006892B49F086ED92E00E940E06F4
:100CA0009093090180930801F1CF08950E943C06BA
:100CB00081110C9446060895FC01A48DA80FB92F4C
:100CC000B11DA35ABF4F2C91848D90E001968F7374
:100CD0009927848FA689B7892C93A089B1898C9193
:100CE000837080648C93938D848D981306C00288E2
:100CF000F389E02D80818F7D80830895EF92FF92AC
:100D00000F931F93CF93DF93EC0181E0888F9B8D2E
:100D10008C8D98131AC0E889F989808185FF15C0E8
:100D20009FB7F894EE89FF896083E889F98980810B
:100D30008370806480839FBF81E090E0DF91CF91DA
:100D40001F910F91FF90EF900895F62E0B8D10E0FC
:100D50000F5F1F4F0F731127E02E8C8D8E110CC06B
:100D60000FB607FCFACFE889F989808185FFF5CFB6
:100D7000CE010E945C06F1CFEB8DEC0FFD2FF11D33
:100D8000E35AFF4FF0829FB7F8940B8FEA89FB89F3
:100D900080818062CFCFCF93DF93EC01888D882351
:100DA000B9F0AA89BB89E889F9898C9185FD03C0CE
:100DB000808186FD0DC00FB607FCF7CF8C9185FFB3
:100DC000F2CF808185FFEDCFCE010E945C06E9CF96
:100DD000DF91CF9108952091DB01260F3327331F38
:100DE00021323105ECF42091D002FC0190E080E04A
:100DF000243069F082E00895A091DB012191AC01DB
:100E000045545E4FA40FB52FB11D2C930196861744
:100E100098F38091DB01680F6093DB0180E0089517
:100E200081E008951092D00281E08093AF02109289
:100E3000AA0261E082E10E94A10461E083E10E94D4
:100E4000A104E9EBF0E080818E7F808380818D7F3B
:100E5000808388E48093B80085E48093BC00089583
:100E6000CF93DF9391E0909302028823B9F0C09171
:100E7000B800D091BA008091BC008A7B8093BC00FE
:100E800060E082E10E94A10460E083E10E94A1048D
:100E90000E941207D093BA00C093B800DF91CF919F
:100EA0000895CF92DF92EF92FF920F931F93CF930B
:100EB000DF93D82FC62F613208F098C00E946805D2
:100EC0006B017C018091D00281116BC081E0809325
:100ED000D0028093AF029FEF9093AE021092AD02CA
:100EE0009C0F9093AC028093AB028091AB02DD0F1C
:100EF000D82BD093AB028091AA02813009F078C040
:100F00001092AA020E9468056B017C018091AB02DD
:100F10008093BB008091D2029091D302A091D40221
:100F2000B091D502892B8A2B8B2BA1F00E946805EA
:100F30000091D2021091D3022091D4023091D502B7
:100F40006C197D098E099F090617170728073907AD
:100F500008F448C08091BC0083FDD8CF85EC809315
:100F6000BC000E9468056B017C018091D002813039
:100F700009F440C08091AD028C1710F4C091AD020D
:100F8000EAE8F2E0A0EBB2E080E08C1355C08C2FD1
:100F9000DF91CF911F910F91FF90EF90DF90CF9055
:100FA00008958091D2029091D302A091D402B09181
:100FB000D502892B8A2B8B2B09F484CF0E946805DC
:100FC0000091D2021091D3022091D4023091D50227
:100FD0006C197D098E099F0906171707280739071D
:100FE00008F070CF8091D1020E943007C0E0CFCFCF
:100FF00085EEB5CF8091D2029091D302A091D40218
:10100000B091D502892B8A2B8B2B09F4AECF0E948D
:1010100068050091D2021091D3022091D402309140
:10102000D5026C197D098E099F0906171707280735
:10103000390708F09ACFD6CF91919D938F5FA5CFB6
:101040000895E091850280918402E81730F4F0E081
:10105000E055FD4F808190E008958FEF9FEF089558
:1010600090918502809184022FEF3FEF981748F40A
:10107000E92FF0E0E055FD4F208130E09F5F909335
:101080008502C90108958091840290918502891B8F
:10109000990B0895CF92DF92EF92FF920F931F93D7
:1010A000CF93DF937C01CB018A0120918902222317
:1010B00089F0EB016B01C40ED51ECC15DD0569F07E
:1010C0006991D701ED91FC910190F081E02DC7016C
:1010D0000995F3CF642F0E94EB06C801DF91CF91F1
:1010E0001F910F91FF90EF90DF90CF900895CF93D5
:1010F000DF931F92CDB7DEB7698320918902222347
:10110000F9F020918602203258F021E030E0FC0115
:101110003383228390E080E00F90DF91CF91089598
:1011200080918702E82FF0E0E556FE4F9981908389
:101130008F5F809387028093860281E090E0ECCFFE
:1011400061E0CE0101960E94EB06F7CFCF92DF92CD
:10115000EF92FF920F931F93CF93DF93D09186026C
:1011600081E0D13208F09CC0C09188020E946805DD
:101170006B017C018091D00281116CC082E0809370
:10118000D00281E08093AF028FEF8093AE02109285
:10119000AD02D093AC02ABE9B1E0EAE8F2E080E066
:1011A000D8138DC01092AB028091AB02CC0FC82B2C
:1011B000C093AB028091AA02813009F084C01092E2
:1011C000AA020E9468056B017C018091AB028093AA
:1011D000BB008091D2029091D302A091D402B09131
:1011E000D502892B8A2B8B2BA1F00E9468050091D8
:1011F000D2021091D3022091D4023091D5026C1901
:101200007D098E099F09061717072807390708F473
:1012100042C08091BC0083FDD8CF85EC8093BC0098
:101220000E9468056B017C018091D002823009F434
:101230004CC08091AE028F3F09F469C08091AE022C
:10124000803209F466C08091AE02803309F463C035
:1012500084E026C08091D2029091D302A091D40262
:10126000B091D502892B8A2B8B2B09F483CF0E9456
:1012700068050091D2021091D3022091D4023091DE
:10128000D5026C197D098E099F09061717072807D3
:10129000390708F06FCF8091D1020E94300785E0B6
:1012A000109287021092860210928902DF91CF91EC
:1012B0001F910F91FF90EF90DF90CF9008959D9137
:1012C00091938F5F6DCF85EEA9CF8091D2029091DF
:1012D000D302A091D402B091D502892B8A2B8B2BFB
:1012E00009F4A2CF0E9468050091D2021091D302A6
:1012F0002091D4023091D5026C197D098E099F0985
:10130000061717072807390708F08ECFC4CF80E0EB
:10131000C7CF82E0C5CF83E0C3CF0F931F93CF9396
:10132000DF938A01E901209711F4C3E7D3E091E04C
:10133000909389028093880210928702109286020D
:10134000E881F9810190F081E02DCE010995D80165
:1013500011966C91E881F9810190F081E02DCE0128
:101360000995E881F9810190F081E02DD8016C9117
:10137000CE010995CE010E94A60891E0811190E06E
:10138000892FDF91CF911F910F910895DF92EF92F6
:10139000FF920F931F93CF93DF93E42ED22EF32E61
:1013A000E801209711F4C3E7D3E091E0909389021C
:1013B000809388021092870210928602E881F98158
:1013C0000190F081E02DCE0109950D2D1F2DE00E2D
:1013D000F12EF11C0E151F0559F0F80161918F01D6
:1013E000E881F9810190F081E02DCE010995F2CFDD
:1013F000CE010E94A60891E0811190E0892FDF9133
:10140000CF911F910F91FF90EF90DF9008950F9370
:101410001F93CF93DF931F92CDB7DEB74983890126
:101420009E012F5F3F4F41E00E94C6090F90DF9160
:10143000CF911F910F910895E1EAF3E0218132816C
:10144000482F6EE680810C94070A90E080E00895B2
:101450008F929F92AF92BF92CF92DF92EF92FF92C4
:101460000E940D1F4B015C01209197013091980162
:101470004091990150919A010E940D1F20915702AD
:10148000309158024091590250915A020E94C81D51
:101490006B017C0120915B0230915C0240915D0206
:1014A00050915E02C501B4010E94C81D9B01AC01B0
:1014B000C701B6010E940E1F6B017C01809297014B
:1014C00090929801A0929901B0929A0120E030E0A8
:1014D00041E654E40E94BB2087FF2AC020E030E0B0
:1014E00041E654ECC701B6010E94621D181634F0A3
:1014F000C12CD12C91E6E92E94ECF92E20E030E0BD
:1015000041E654E4C701B6010E94EC1F20E030E040
:101510004FE753E40E94C81D0E945E20CB01FF905C
:10152000EF90DF90CF90BF90AF909F908F900895F5
:10153000C12CD12C81E6E82E84E4F82EDFCFCF93A6
:10154000DF93D82FC92F60E08CE00E94A10461E0F6
:101550008DE00E94A1046D2F7C2F61308FEF780702
:1015600014F461E07FEF77FF03C071956195710915
:101570008AE0DF91CF910C940B05CF93DF93D82FA6
:10158000C92F60E084E00E94A10461E087E00E942E
:10159000A1046D2F7C2F61308FEF780714F461E088
:1015A0007FEF77FF03C071956195710989E0DF9145
:1015B000CF910C940B052F923F924F925F926F92B6
:1015C0007F928F929F92AF92BF92CF92DF92EF92D3
:1015D000FF920F931F93CF93DF9300D000D000D0E2
:1015E000CDB7DEB7C82E6A8349833C832B83FE8246
:1015F000ED820E94BF054B015C01ED80FE80EF286B
:1016000021F483E793E09E838D83F12CE12CD12C90
:101610009981292E312C2801712C612CE214F304BC
:101620000CF067C0A1E0A0938902C09288021092DA
:10163000870210928602AD81BE81ED91FC911197D7
:101640000190F081E02D6A81CD0109958D819E8107
:101650000E94A608B1E0B0938902C092880210925D
:10166000870210928602B1016E197F0961327105FD
:1016700014F060E270E0613208F060E28C2D0E94AC
:1016800051071092850280938402AD81BE81ED9155
:10169000FC9111970084F185E02DCD010995892BEE
:1016A00009F10115110599F4AD81BE81ED91FC910F
:1016B00011970284F385E02DCD010995EB81FC8122
:1016C000ED0DF11DD7FCFA958083D394DECF0E94F7
:1016D000BF05681979098A099B096415750586058E
:1016E000970510F38981813208F080E2E80EF11C41
:1016F00095CF01151105B1F00E94BF056819790950
:101700008A099B0930E020E0601771078207930780
:1017100048F08D2D0D2C000C990B8215930514F4B7
:10172000DD24DA948D2D26960FB6F894DEBF0FBE19
:10173000CDBFDF91CF911F910F91FF90EF90DF9080
:10174000CF90BF90AF909F908F907F906F905F9061
:101750004F903F902F900895EF92FF920F931F9319
:10176000CF93DF93EC01E980FA809C012D5F3F4F1E
:1017700008EE13E041E06AE388810E94DB0A8B8176
:10178000DF91CF911F910F91FF90EF900895EF920D
:10179000FF920F931F93CF93DF931F92CDB7DEB7C6
:1017A000E090A203F090A30308EE13E09E012F5FE8
:1017B0003F4F41E065E78091A1030E94DB0A882347
:1017C00039F089818E7790E0959587958093A40371
:1017D0008091A4030F90DF91CF911F910F91FF9003
:1017E000EF900895EF92FF920F931F93CF93DF93A3
:1017F000C1EAD3E0E980FA8008EE13E024EA33E09E
:1018000042E062E788810E94DB0A8B819C819827F5
:1018100089279827DF91CF911F910F91FF90EF902B
:1018200008957F928F929F92AF92BF92CF92DF9254
:10183000EF92FF920F931F93CF93DF931F92CDB739
:10184000DEB7A82E962E742E822EB02E08EE13E050
:101850009E012F5F3F4F41E00E94DB0A882399F1F0
:10186000872D8819990BAC014F5F5F4F81E090E0A5
:1018700002C0880F991F8A94E2F70197042E01C0D5
:10188000880F0A94EAF72B2D01C0220F4A95EAF738
:10189000482F4095B9804B218223482B49839701DB
:1018A000692D8A2D0E94070A0F90DF91CF911F9119
:1018B0000F91FF90EF90DF90CF90BF90AF909F90EF
:1018C0008F907F90089580E0EFCF8F929F92AF929C
:1018D000BF92CF92DF92EF92FF920F931F93CF931D
:1018E000DF931F92CDB7DEB7B82EA62E842E922E90
:1018F0006801780108EE13E09E012F5F3F4F41E041
:101900000E94DB0A81E090E001C0880F8A94EAF728
:1019100049819920A9F0482B498396016A2D8B2D86
:101920000E94070A0F90DF91CF911F910F91FF90B6
:10193000EF90DF90CF90BF90AF909F908F900895E1
:1019400080954823E9CF0F931F93FC0101811281F9
:1019500021E042E06AE680810E94650C1F910F91B0
:1019600008953F924F925F926F927F928F929F92D3
:10197000AF92BF92CF92DF92EF92FF920F931F939D
:10198000CF93DF93782E662E6A017901E8010E94D9
:10199000BF054B015C01209711F4C3E7D3E011E0D0
:1019A0001093890270928802109287021092860228
:1019B000E881F9810190F081E02D662DCE01099535
:1019C000CE010E94A608109389027092880210929C
:1019D00087021092860262E0872D0E9451071092C2
:1019E00085028093840201E010E02701712C612CB4
:1019F00033243394E881F9810084F185E02DCE0110
:101A00000995892B49F1111127C0E114F104C9F49A
:101A1000E881F9810284F385E02D01110CC0CE012B
:101A20000995F60120813181822B932B918380834C
:101A300011E00325DFCFCE010995F60110828183E5
:101A4000F8CF0E94BF05681979098A099B096415B6
:101A5000750586059705E0F2CE010E94A608E114FF
:101A6000F10499F00E94BF05AB01BC014819590966
:101A70006A097B09C701B0E0A0E0481759076A0767
:101A80007B0718F0111101C01FEF812FDF91CF915B
:101A90001F910F91FF90EF90DF90CF90BF90AF908C
:101AA0009F908F907F906F905F904F903F900895A0
:101AB0002F923F924F925F926F927F928F929F925E
:101AC000AF92BF92CF92DF92EF92FF920F931F934C
:101AD000CF93DF93CDB7DEB7E7970FB6F894DEBFAD
:101AE0000FBECDBF8F8F48A759A76AA77BA70CA7AA
:101AF0001DA72EA73FA78B3309F031C20E94C70B49
:101B0000883308F49EC297E79F8BA3E0AA8FE090EA
:101B1000A203F090A30308EE13E09E012F5F3F4F56
:101B200041E06CE18091A1030E94DB0A882351F01F
:101B30008981887190E023E0959587952A95E1F752
:101B40008093A4038091A40320E030E4790102C0D3
:101B5000F594E7948A95E2F7CE010D969E8B8D8BD6
:101B6000DE011196B98FA88F6C01BF880091A20386
:101B70001091A30328EE33E0AE014D5E5F4F6B2D55
:101B80008091A1030E94B10C8B889C88B401092C20
:101B9000000C880B990B0E94691DFF89F33109F431
:101BA000E6C121E082229924D6018D929C9220E008
:101BB00030E040E051E40E94C81DE88DF98D60835B
:101BC000718382839383BA8DBB0EE2E0CE0ED11C6B
:101BD000288D398D2C5F3F4F398F288F8D899E89B5
:101BE0002817390719F69F8D9B3309F0CEC18DEC6C
:101BF0009CECACE4BDE388AB99ABAAABBBABA6E075
:101C0000B0E0BFA3AEA3C701B0E0A0E08CAB9DAB3A
:101C1000AEABBFAB19A218A2312C212CDE0111965C
:101C2000BC8FAB8FFE013D96FBA3EAA3FF89FCA30B
:101C30002F8D2DA3812C912C54011E8E1D8E009171
:101C4000A2031091A30328EE33E0AE014D5E5F4F77
:101C50006DA18091A1030E94B10C6B897C89072E34
:101C6000000C880B990B0E94691D6B017C013F8D54
:101C70003B3391F48D8D9E8D029771F46CA97DA9F3
:101C80008EA99FA90E94671D9B01AC01C701B601E7
:101C90000E940D1F6B017C012601370177FA7094B9
:101CA00077F87094C501B4010E94671D4B015C0177
:101CB00020E030E0A901C701B6010E94BB20181640
:101CC00014F073016201A7019601C501B4010E94DD
:101CD0000E1F0E9465204B015C012FE632E143E8B4
:101CE0005AE3C301B2010E94C81D2CA53DA54EA513
:101CF0005FA50E94C81DAB8DBC8D2D913D914D916E
:101D00005C910E940E1F6B017C01EB8DFC8DC082EB
:101D1000D182E282F38228A539A54AA55BA5C30139
:101D2000B2010E94C81DA70196010E940E1FFF89E3
:101D3000F33109F434C120E030E040E05EE30E947A
:101D4000C81D6B017C0120E030E0A9010E94BB208E
:101D500020E030E040E05FE387FD1CC1C701B60131
:101D60000E940E1F0E945E206E7FAAA1BBA18D91D2
:101D70009C91682B792B7C8B6B8B2091A2033091EB
:101D8000A303AE014D5E5F4F6CA18091A1030E9441
:101D90008D09ED8DFE8D3196FE8FED8FFDA1FE5FDD
:101DA000FDA32CA13A8D230F2CA38AA19BA10296FF
:101DB0009BA38AA3AB8DBC8D1496BC8FAB8FED8D8E
:101DC000FE8D339709F03BCFF3E62F16310449F42B
:101DD00029EE821623E09206A104B10410F0312C02
:101DE000212CC501B4010E94671D28A939A94AA95F
:101DF0005BA90E94C81D20E030E040EA50E40E9448
:101E0000621D87FF05C088A199A1019699A388A3A7
:101E100094E689169104A104B10408F0DFC0ABE098
:101E20002A1631040CF4DAC0E8A1F9A13A970CF4AF
:101E3000D5C020E030E040E45FE368A579A58AA53D
:101E40009BA50E94C81D68A779A78AA79BA720E029
:101E500030E040E45FE36CA57DA58EA59FA50E94C0
:101E6000C81D6CA77DA78EA79FA79E01235F3F4F2C
:101E70006901FF88CE0101963C01F30161917191E6
:101E8000819191913F01FF89F33109F4BBC020E0BA
:101E900030E040E05EE30E94C81D4B015C0120E0A1
:101EA00030E0A9010E94BB2020E030E040E05FE389
:101EB00087FDA3C0C501B4010E940E1F0E945E20D1
:101EC0006E7FD6018D919C91682B792B7C8B6B8BCF
:101ED0002091A2033091A303AE014D5E5F4F6F2DA1
:101EE0008091A1030E948D09BA8DFB0EE2E0CE0E17
:101EF000D11C288D398D2615370509F0BECF8EA14E
:101F00009FA101979FA38EA3892B09F083CE81EA1D
:101F100093E00E94A30C0091A2031091A30321E07F
:101F200043E06AE68091A1030E94650CE7960FB634
:101F3000F894DEBF0FBECDBFDF91CF911F910F91FF
:101F4000FF90EF90DF90CF90BF90AF909F908F90D9
:101F50007F906F905F904F903F902F90089523E176
:101F60002F8B32E03A8FE12C80E2F82EF5CD20E085
:101F700030E040E850E40E94C81DA88DB98D6D93F3
:101F80007D938D939C9313971ECE80E090E0A0E804
:101F9000BFE331CEC701B6010E940D1FE3CE20E0A2
:101FA00030E040E85EE30E94C81D6B017C0120E048
:101FB00030E0A9010E94BB2020E030E040E05FE378
:101FC00087FD07C0C701B6010E940E1F0E945E2058
:101FD000D2CEC701B6010E940D1FF8CF61E070E0BC
:101FE00080E090E00E948D059FEF291A390AA4E64F
:101FF0002A16310409F012CE1CCFC501B4010E948B
:102000000D1F5CCF20E030E040E85EE30E94C81D79
:102010004B015C0120E030E0A9010E94BB2020E0E0
:1020200030E040E05FE387FD07C0C501B4010E94D6
:102030000E1F0E945E204ACFC501B4010E940D1FF1
:10204000F8CFB6E0BF8BE2E0EA8F61CDCF93DF93AC
:10205000EC0197FD1FC0892BC1F061E084E00E9474
:10206000A10460E087E00E94A104BE01CF3FD1053A
:1020700019F014F06FEF70E089E00E940B0590E01A
:1020800080E0DF91CF910C949F0A90E080E00E9465
:10209000BD0AF5CF90E080E00E94BD0AC1308FEF0D
:1020A000D80714F4CFEFD0E061E08CE00E94A104E7
:1020B00060E08DE00E94A104BE01D7FF03C07195CE
:1020C000619571098AE0DF91CF910C940B05FC01B9
:1020D00001900020E9F73197AF01481B590BBC0173
:1020E00086ED92E00C94D2058F929F92AF92BF92B0
:1020F0000F931F93CF93DF93CDB7DEB7A1970FB6A2
:10210000F894DEBF0FBECDBF19A2423008F44AE0FA
:102110008E010F5D1F4F842E912CB12CA12CA50197
:1021200094010E94BD1EE62FB901CA01EA30F4F401
:10213000E05DD801EE938D01232B242B252B79F71D
:1021400090E080E0109719F0CD010E946710A196F1
:102150000FB6F894DEBF0FBECDBFDF91CF911F91B8
:102160000F91BF90AF909F908F900895E95CE1CF61
:10217000CF92DF92EF92FF92CF93DF936C01990F92
:10218000EE08FF08F7FE1FC06DE286ED92E00E94A8
:102190007E06EC0166277727CB016C197D098E0935
:1021A0009F094AE00E947410C80FD91F84E391E090
:1021B0000E9467108C0F9D1FDF91CF91FF90EF90D1
:1021C000DF90CF9008954AE0C701B6010E947410D5
:1021D000EC01ECCF2F923F924F925F926F927F92E1
:1021E0008F929F92AF92BF92CF92DF92EF92FF9227
:1021F0000F931F93CF93DF9300D000D0CDB7DEB7FE
:102200003C014B01242E522E302E2091A2033091FE
:10221000A3036DE68091A1030E94070A852D0E9409
:102220001C0A80E190E00E9487215C01002369F193
:1022300080E190E00E9487219C838B83D12CC12C6C
:10224000C6014096482C4C188816990610F080E17B
:10225000482E80E091E0851991094816190619F079
:1022600014F0452C4194332099F0AB81BC8190E06F
:1022700080E093012C0D3D1D841578F4F901E80FE1
:10228000F91FE491ED930196F7CF1C821B82D6CF04
:10229000C3018C0D9D1D9C838B830091A203109123
:1022A000A3032B813C81442D6FE68091A1030E9402
:1022B000C609842D90E09A838983A114B10409F49E
:1022C00046C02091A2033091A303422D4F716DE6C9
:1022D0008091A1030E94070A852D0E941C0AE090AC
:1022E000A203F090A30308EE13E09501442D6FE6DE
:1022F0008091A1030E94DB0A49815A81B5018B813B
:102300009C810E946923892B11F1C5010E9423221F
:10231000332029F08B819C810E942322312C832D34
:102320000F900F900F900F90DF91CF911F910F9111
:10233000FF90EF90DF90CF90BF90AF909F908F90E5
:102340007F906F905F904F903F902F90089589817C
:102350009A81C80ED91EC814D904B8F4540C09F4D3
:1023600023942091A2033091A303422D4F716DE677
:102370008091A1030E94070A852D0E941C0A60CF4C
:102380008B819C810E942322CACFC5010E942322F7
:102390003110F6CF33243394C2CFCF93DF93EC01C7
:1023A00088819981009711F00E9423221982188256
:1023B0001D821C821B821A82DF91CF910895FC013D
:1023C00080819181009711F00C94232208950F933E
:1023D0001F93CF93DF93EC0188819981009759F087
:1023E0002A813B812617370730F081E0DF91CF91BA
:1023F0001F910F9108958B016F5F7F4F0E94AC2258
:10240000009759F0998388831B830A832C813D812F
:10241000232B59F7FC011082E8CF80E0E7CFEF9241
:10242000FF920F931F93CF93DF93EC017B018A01FF
:10243000BA010E94E71181110BC0CE010E94CD119B
:10244000CE01DF91CF911F910F91FF90EF900895F2
:102450001D830C83B701888199810E947F23F0CF6F
:10246000CF93DF93EC01FB018617970749F060815A
:1024700071816115710541F0448155810E940F12EF
:10248000CE01DF91CF9108950E94CD11F9CF85ED56
:102490008093BC008091D2029091D302A091D4028B
:1024A000B091D5020796A11DB11D23E0B695A79561
:1024B000979587952A95D1F72091BC0024FD03C0FC
:1024C0001092D00208954091D2025091D3026091AF
:1024D000D4027091D502452B462B472B69F3009708
:1024E000A105B10541F025E32A95F1F70000019718
:1024F000A109B109E1CF8091D1020C9430071F925C
:102500000F920FB60F9211242F933F938F939F93A7
:10251000AF93BF9380917C0290917D02A0917E0247
:10252000B0917F0230917B0223E0230F2D3758F5C5
:102530000196A11DB11D20937B0280937C02909394
:102540007D02A0937E02B0937F02809180029091E1
:102550008102A0918202B09183020196A11DB11D5A
:102560008093800290938102A0938202B0938302B1
:10257000BF91AF919F918F913F912F910F900FBE7F
:102580000F901F90189526E8230F0296A11DB11DEC
:10259000D2CF1F920F920FB60F9211242F933F9319
:1025A0004F935F936F937F938F939F93AF93BF935B
:1025B000EF93FF93E0910201F09103010995FF91E0
:1025C000EF91BF91AF919F918F917F916F915F91AB
:1025D0004F913F912F910F900FBE0F901F90189524
:1025E0001F920F920FB60F9211242F933F934F9388
:1025F0005F936F937F938F939F93AF93BF93EF936B
:10260000FF93E0910001F09101010995FF91EF9195
:10261000BF91AF919F918F917F916F915F914F91FA
:102620003F912F910F900FBE0F901F9018951F9202
:102630000F920FB60F9211242F933F934F935F93F6
:102640006F937F938F939F93AF93BF93EF93FF937A
:1026500086ED92E00E945C06FF91EF91BF91AF91F1
:102660009F918F917F916F915F914F913F912F91AA
:102670000F900FBE0F901F9018951F920F920FB6DC
:102680000F9211242F938F939F93EF93FF93E091D9
:10269000E602F091E7028081E091EC02F091ED0218
:1026A00082FD1BC090818091EF028F5F8F7320911C
:1026B000F002821741F0E091EF02F0E0EA52FD4FA4
:1026C000958F8093EF02FF91EF919F918F912F91C2
:1026D0000F900FBE0F901F9018958081F4CF1F921E
:1026E0000F920FB60F9211242F933F934F935F9346
:1026F0006F937F938F939F93AF93BF93EF93FF93CA
:102700008091B900887F803609F44AC0F0F588329C
:1027100009F4A7C018F5803109F49BC0B8F48823E8
:1027200009F4F9C0883009F494C0FF91EF91BF918A
:10273000AF919F918F917F916F915F914F913F9159
:102740002F910F900FBE0F901F901895883109F4AC
:1027500088C0803251F78093AE0214C0803409F4EF
:102760009DC040F48033B9F38833F9F68093AE020C
:1027700085ECB0C0803509F485C0883509F496C071
:10278000883499F60E944712D0CF883909F48CC05A
:1027900038F5883729F050F4883611F0803729F65B
:1027A00083E08093D0021092FD0157C0883809F46D
:1027B0007BC0803919F0803809F0B7CF8091FD01D6
:1027C000803208F071C0E091FD0181E08E0F8093AE
:1027D000FD018091BB00F0E0E352FE4F80833DC0DD
:1027E000803B39F0E0F4803A09F479C0883A09F086
:1027F0009CCF84E08093D0021092DC011092DB0128
:10280000E0910002F091010209958091DB018111B4
:102810000FC081E08093DB011092BB0109C0803CB6
:1028200009F4A6CF883C09F4A3CF883B09F07DCFFB
:10283000E091DC0181E08E0F8093DC01F0E0E55453
:10284000FE4F80818093BB009091DC018091DB0181
:1028500029C08091AB028093BB0085EC8093BC00C3
:1028600064CF9091AD028091AC02981758F5E09139
:10287000AD0281E08E0F8093AD02F0E0E657FD4F90
:102880008081E9CFE091AD0281E08E0F8093AD02AF
:102890008091BB00F0E0E657FD4F80839091AD0240
:1028A0008091AC029817C8F285E8D8CFE091AD02CC
:1028B00081E08E0F8093AD028091BB00F0E0E6577F
:1028C000FD4F80838091AF0281115CCF81E08093C6
:1028D000AA0284EA8093BC001092D00226CF85EC35
:1028E0008093BC001092D0028091FD01803230F4C0
:1028F000E091FD01F0E0E352FE4F10826091FD0196
:1029000070E0E091FE01F091FF018DED91E00995FD
:102910001092FD010ACF1092AE0234CFE6EDF2E044
:102920001382128288EE93E0A0E0B0E08483958366
:10293000A683B78324E131E03183208325EC30E0A6
:102940003587248724EC30E03787268720EC30E079
:10295000318B208B21EC30E0338B228B22EC30E06A
:10296000358B248B26EC30E0378B268B118E128E24
:10297000138E148EE3E7F3E013821282848395832F
:10298000A683B78386E291E091838083E1EAF3E056
:1029900088E680831282118288EF9AE2A0E0B0E09C
:1029A000818B928BA38BB48BEBE9F3E011821082C5
:1029B000138212821582148250E040E066E371E0D7
:1029C000CF010E940F12EBE8F3E080E090E0A0E876
:1029D000BFE380839183A283B3831482158216821E
:1029E000178210861186128613861486158616861F
:1029F0001786EFE7F3E010821182128213821482AD
:102A00001582168217821086118612861386089503
:102A1000CF93DF93CDB7DEB7C654D1090FB6F89484
:102A2000DEBF0FBECDBF789484B5826084BD84B50F
:102A3000816084BD85B5826085BD85B5816085BDB9
:102A400080916E00816080936E0010928100809171
:102A500081008260809381008091810081608093F9
:102A60008100809180008160809380008091B1001E
:102A700084608093B1008091B00081608093B00049
:102A800080917A00846080937A0080917A008260DD
:102A900080937A0080917A00816080937A0080919F
:102AA0007A00806880937A001092C100E091E6027B
:102AB000F091E70282E08083E091E202F091E3028C
:102AC0001082E091E402F091E5028FEC8083109295
:102AD000EE02E091EA02F091EB0286E08083E09161
:102AE000E802F091E902808180618083E091E80250
:102AF000F091E902808188608083E091E802F091A2
:102B0000E902808180688083E091E802F091E90227
:102B100080818F7D808310928502109284021092B2
:102B20008702109286020E9412078FEC95E0909324
:102B300001028093000280ED95E09093FF01809365
:102B4000FE018CE08093B8001092020288EB9BE0BB
:102B5000A0E0B0E08093D2029093D302A093D4027D
:102B6000B093D502DD24D394D092D102E090A20399
:102B7000F090A30301E023E042E06BE68091A10323
:102B80000E94110CE090A203F090A30300E022E069
:102B900044E06BE18091A1030E94110CE090A2033C
:102BA000F090A30322E044E06CE18091A1030E9435
:102BB000110C0091A2031091A30320E046E06BE604
:102BC0008091A1030E94650C60E082E00E94CF0426
:102BD0000E94C70B843309F469C049E150E067E300
:102BE00071E08BE993E00E940F120FEF1FEF10933B
:102BF00005020093040261E08DE00E94CF0462E0D0
:102C000088E00E94CF04012B01F161E08DE00E9479
:102C1000A1041A8219821C821B821E821D826BE90A
:102C200073E0CE0101960E9430124D815E81698170
:102C30007A8186ED92E00E94D20584E391E00E94C1
:102C40006710CE0101960E94DF110E94BF057093AC
:102C50006402609363020BE818E027E7E22E28E0A5
:102C6000F22E33E6C32E38E0D32EF8018491F7011B
:102C7000A490F601B490BB2009F444C281110E94D3
:102C80007804EB2DF0E0EE0FFF1FE35CF74FA5910A
:102C9000B4918C91A82209F435C284E791E00E9496
:102CA000671084E391E00E946710DFCF0091A203D8
:102CB0001091A30321E047E06BE68091A1030E94FD
:102CC000650C6EE170E080E090E00E948D0500915F
:102CD000A2031091A30320E046E06BE68091A103DC
:102CE0000E94650C2091A2033091A30340E76DE69A
:102CF0008091A1030E94070A86E00E941C0A20918D
:102D0000A2033091A30340E06DE68091A1030E94ED
:102D1000070A2091A2033091A3034FE765E2809157
:102D2000A1030E94070A0091A2031091A30320E0CF
:102D300045E06AE68091A1030E94650C2091A20300
:102D40003091A30348E665E28091A1030E94070A3F
:102D50000091A2031091A30321E041E06AE6809173
:102D6000A1030E94650C64E170E080E090E00E94A5
:102D70008D05E090A203F090A30303E023E042E07E
:102D80006BE68091A1030E94110C2091A203309167
:102D9000A30342E168E38091A1030E94070A209106
:102DA000A2033091A30344E069E18091A1030E9452
:102DB000070AE090A203F090A30301E023E045E0BE
:102DC0006AE18091A1030E94110CE090A203F090AF
:102DD000A30303E023E042E06AE18091A1030E94A3
:102DE000110CE090A203F090A30322E044E06BE119
:102DF0008091A1030E94110C01E020E040E069E80D
:102E000077E084EB90E00E94EA10882309F404C183
:102E10001982DA8200E026E142E062E070E0CE0151
:102E200001960E94EA102091A2033091A30343E08F
:102E300060E78091A1030E94070A2091A2033091CC
:102E4000A30340E061E78091A1030E94070A00917B
:102E5000A2031091A30320E040E060E08091A10371
:102E60000E94650C2091A2033091A30342E06FE120
:102E70008091A1030E94070A2091A2033091A3032D
:102E80004CE961E28091A1030E94070A2091A2030C
:102E90003091A30340E560E28091A1030E94070AFC
:102EA0002091A2033091A30340E062E28091A1034C
:102EB0000E94070A0091A2031091A30321E046E0BB
:102EC0006AE68091A1030E94650C0091A203109113
:102ED000A30321E043E06AE68091A1030E94650C10
:102EE0000091A2031091A30320E047E06AE68091DD
:102EF000A1030E94650C8AE290E09093C503809341
:102F0000C40381EA93E00E94A30C81EA93E00E944B
:102F1000AC0B80E0809303022091A2033091A303C5
:102F20008091A1034CED50E05EA74DA7AE01435D3B
:102F30005F4F63E10E948D092091A2033091A303AA
:102F40008091A1034CE450E05CA74BA7AE01455D26
:102F50005F4F65E10E948D092091A2033091A30388
:102F60008091A1034BEA5FEF5AA749A7AE01475DE5
:102F70005F4F67E10E948D090E94C70B6AE08833AA
:102F800008F06DE72091A2033091A3038091A10383
:102F90004CEF56E058A74FA3AE01495D5F4F0E942A
:102FA0008D0980910302811139C000E010E028EA08
:102FB00031E44EEA57E461EA7EE38BE30E94580D68
:102FC0000FEF1FEF2CEB32E44EEA57E461EA7EE3A9
:102FD00083E40E94580D0091A2031091A30321E005
:102FE00047E06AE68091A1030E94650C8BEC95E0B6
:102FF0009093010180930001809169008360809328
:103000006900E89A81EA93E00E94AC0B81E080932A
:10301000520210E000E0EBCD81E07CCF1AA219A2B1
:103020001CA21BA21EA21DA24AE08E010F5F1F4F11
:10303000B80190E00E94381DF80101900020E9F7E6
:103040003197AF01401B510BB801CE0181960E9410
:103050000F121A8219821C821B821E821D8240E27C
:1030600050E061E571E0C8010E940F128DA19EA1A0
:10307000C9A0DAA0ED80FE80E80EF91EC114D104CB
:1030800081F1892B89F0B701C8010E94E7118823DB
:1030900041F129813A818D819E81B601820F931F72
:1030A0000E947F23FE82ED82ED80FE808FEFE81A82
:1030B000F80AB701C8010E94E711811116C0C801C2
:1030C0000E94CD11B8018BE993E00E943012C80133
:1030D0000E94DF11CE0181960E94DF110EEF1FEFDB
:1030E00086CDC8010E94CD11DFCF29813A818D8123
:1030F0009E8162E771E0820F931F0E947F23FE8210
:10310000ED82E0CF80915202882399F12090C40390
:103110003090C5032FA60E9468052B013C01510188
:10312000BB240E94F20B9C01A816B9060CF01CC12E
:10313000893C91050CF4F0C081EA93E00E94A30C55
:103140000E94F20B9C01892B09F012C10E946805B4
:1031500064197509860997090091B2031091B303A8
:103160002091B4033091B5030617170728073907D4
:1031700038F760E070E0CB016B017C012B013C0172
:1031800040926F02509270026092710270927202CD
:10319000C0927302D0927402E0927502F0927602AD
:1031A00060937702709378028093790290937A0209
:1031B000C0926B02D0926C02E0926D02F0926E02AD
:1031C00060936702709368028093690290936A0229
:1031D0008AE791E00E946710C0907702D090780251
:1031E000E0907902F0907A02A7019601C701B6013A
:1031F0000E941A21882309F4DCC080E891E00E9433
:1032000067108CE891E00E9467100E94BF058B0157
:103210008091650290916602800F911F4091630238
:1032200050916402841B950B66E475E00E94DF1EDA
:10323000BC01909366028093650210936402009330
:10324000630280910801909109018130910509F490
:1032500082C10CF040C1892B81F580E090E0A8ECA0
:10326000B1E480935B0290935C02A0935D02B09303
:103270005E0280E090E0A0E8B0E480935702909373
:103280005802A0935902B0935A02209167023091DC
:1032900068024091690250916A0260915F027091E8
:1032A000600280916102909162020E94280A9093CC
:1032B0005602809355020E94261020E030E0A901BA
:1032C00060910401709105018091060190910701C0
:1032D0000E94621D8823C1F080916702909168026C
:1032E000A0916902B0916A0280935F02909360029C
:1032F000A0936102B0936202109204011092050142
:1033000010920601109207010E943C06882309F4DE
:10331000A2CC0E9446069FCC0E94F20B9C01A816EC
:10332000B90614F56C01CA18DB084601F1E2CF16A4
:10333000D1041CF080E2882E912C882099F0E09036
:10334000A203F090A30308EE13E09E012F5F3F4F0E
:10335000482D64E78091A1030E94DB0AC818D908B0
:1033600021F7DACF1982FACF2115310509F401CFFF
:10337000A216B30609F464C10E94680564197509B0
:10338000860997090091B2031091B3032091B40309
:103390003091B503061717072807390708F0C1CE83
:1033A000E8CE109212025EC16BED7FE089E490ECF2
:1033B0001CC346015701E894B7F82FEF3FEF4FE7E2
:1033C0005FE7C501B4010E941A2181110DC02FEFE2
:1033D0003FEF4FE75FE7C501B4010E94621D181679
:1033E0001CF484E891E00BCF2FEF3FEF4FE75FE451
:1033F000C701B6010E94BB2018161CF488E891E0B2
:10340000FECE2FEF3FEF4FE75FECC701B6010E9402
:10341000621D87FDF3CF20E030E0A901C701B601AE
:103420000E94621D87FF09C06DE286ED92E00E9456
:103430007E06F7FAF094F7F8F0942AE037ED43EAC5
:103440005BE3C701B6010E940E1F4B015C010E94A5
:1034500065206B017C010E94671D9B01AC01C501C9
:10346000B4010E940D1F4B015C014AE0C701B60187
:103470000E9474106EE286ED92E00E947E0620E0CB
:1034800030E040E251E4C501B4010E94C81D4B0187
:103490005C010E9465206B01F12CE12C4AE0C70120
:1034A000B6010E947410C701B6010E94671D9B01FE
:1034B000AC01C501B4010E940D1F20E030E040E2E4
:1034C00051E40E94C81D0E94652090E080E04AE01F
:1034D0000E94741096CE8230910509F46CC0039757
:1034E00009F0EBCE80E090E0A0EAB1E480935B02CB
:1034F00090935C02A0935D02B0935E0280E090E046
:10350000A0E8BFE38093570290935802A09359021A
:10351000B0935A02072E000C880B990B0E94691D6C
:103520002BED3FE049EC50E40E94C81D20E030EC58
:1035300048EA54E40E94EC1F0E94C820C090670231
:10354000D0906802E0906902F0906A0220E030E0DA
:1035500040E751E468C080E090E0A0EFB1E48093E0
:103560005B0290935C02A0935D02B0935E0280E0E8
:1035700090E0A0EAB0E48093570290935802A093A1
:103580005902B0935A02209167023091680240912B
:10359000690250916A0260E070E0CB010E94280A43
:1035A0008C0190935602809355020E942610C80108
:1035B0000E94B81082CE80E090E0A8ECB1E4809345
:1035C0005B0290935C02A0935D02B0935E0280E088
:1035D00090E0A0E8BFE38093570290935802A09335
:1035E0005902B0935A02072E000C880B990B0E94C7
:1035F000691D2BED3FE049EC50E40E94C81D20E01E
:1036000030EC48EA54E40E94EC1F0E94C820C090AD
:103610006702D0906802E0906902F0906A0220E0B0
:1036200030E040EA51E40E94C81D0E945E20072E4F
:10363000000C880B990B0E94691DA7019601AECF63
:103640009FA5992309F4ADCEE090A203F090A303C7
:1036500008EE13E022E132E0422D64E78091A103FD
:103660000E94DB0A6090160270901702762467248D
:103670007624A0901A02B0901B02BA24AB24BA247C
:1036800080901E0290901F029824892498246091B3
:10369000120270911302762767277627072E000CF7
:1036A000880B990B0E94691D20E030E040E858E348
:1036B0000E94C81D6B017C01C0928B03D0928C03C9
:1036C000E0928D03F0928E03B301770C880B990B77
:1036D0000E94691D20E030E040E858E30E94C81DC8
:1036E0002B013C0140928F03509290036092910312
:1036F00070929203B501BB0C880B990B0E94691D57
:1037000020E030E040E858E30E94C81D6FA778AB86
:1037100089AB9AAB60939303709394038093950362
:1037200090939603B401990C880B990B0E94691D24
:1037300020E030E040E858E30E94C81D6BAB7CAB52
:103740008DAB9EAB6093970370939803809399031E
:1037500090939A039B01AC01C301B2010E94C81D62
:103760004B015C012FA538A949A95AA9C701B60187
:103770000E94C81D9B01AC01C501B4010E940D1F30
:103780009B01AC010E940E1F23966CAF7DAF8EAFE4
:103790009FAF239760937F0370938003809381038F
:1037A00090938203A3019201C701B6010E94C81D34
:1037B0004B015C012BA93CA94DA95EA96FA578A975
:1037C00089A99AA90E94C81D9B01AC01C501B40139
:1037D0000E940E1F9B01AC010E940E1F6BAF7CAFBD
:1037E0008DAF9EAF609383037093840380938503B2
:1037F00090938603A7019601C701B6010E94C81DD8
:103800004B015C01A3019201C301B2010E94C81DDA
:103810009B01AC01C501B4010E940D1F4B015C016D
:103820002FA538A949A95AA9CA01B9010E94C81DE2
:103830009B01AC01C501B4010E940D1F4B015C014D
:103840002BA93CA94DA95EA9CA01B9010E94C81DB6
:103850009B01AC01C501B4010E940E1F6FAB78AF94
:1038600089AF9AAF6093870370938803809389032D
:1038700090938A03A7019601C701B6010E940E1F0B
:103880004B015C01A3019201C301B2010E940E1F12
:1038900027966CAF7DAF8EAF9FAF2797A70196019C
:1038A000C501B4010E94C81D6B017C01A3019201F6
:1038B00027966CAD7DAD8EAD9FAD27970E94C81D3C
:1038C0009B01AC01C701B6010E940E1F20E030E051
:1038D00040E85FE30E940D1F6B017C012FA538A912
:1038E00049A95AA927966CAD7DAD8EAD9FAD27979E
:1038F0000E94C81D2B013C012BA93CA94DA95EA922
:10390000C501B4010E94C81D9B01AC01C301B201F5
:103910000E940D1FA70196010E948D1F2B013C01E3
:1039200040920602509207026092080270920902C9
:103930002BAD3CAD4DAD5EADCA01B9010E94C81DB5
:103940006B017C012FA938AD49AD5AADCA01B9014F
:103950000E94C81D9B01AC01C701B6010E940E1F49
:103960000E94D6209B01AC0123966CAD7DAD8EAD3F
:103970009FAD23970E948D1F6B017C01C0920A02AC
:10398000D0920B02E0920C02F0920D022FA938ADFA
:1039900049AD5AAD6BAD7CAD8DAD9EAD0E948D1F16
:1039A0004B015C0180920E0290920F02A0921002D5
:1039B000B092110220E030E0A9016FA978AD89AD85
:1039C0009AAD0E94621D87FF1AC020E030E0A90175
:1039D000C701B6010E94BB20A701960118160CF082
:1039E000E3CC6BED7FE089E490E40E940D1F6093CF
:1039F0000A0270930B0280930C0290930D0220E058
:103A000030E044E353E4C301B2010E94C81D2BED32
:103A10003FE049E450E40E94EC1F2B013C0120E010
:103A200030E044E353E460910A0270910B0280910C
:103A30000C0290910D020E94C81D2BED3FE049E45D
:103A400050E40E94EC1F6B017C0120E030E044E375
:103A500053E4C501B4010E94C81D2BED3FE049E4C9
:103A600050E40E94EC1F8CCB8BE993E00C94DF11A7
:103A7000BB27FB015527AA27880F991FAA1FA41748
:103A800010F0A41B83955051B9F7A05DAA3308F03C
:103A9000A95DA193009779F7B111B1931192CB0170
:103AA0000C94521DDC01FC01672F71917723E1F723
:103AB000329704C07C916D9370836291AE17BF07FB
:103AC000C8F308950E94A41D08F481E00895E894C5
:103AD00009C097FB3EF490958095709561957F4F56
:103AE0008F4F9F4F9923A9F0F92F96E9BB27939504
:103AF000F695879577956795B795F111F8CFFAF414
:103B0000BB0F11F460FF1BC06F5F7F4F8F4F9F4F44
:103B100016C0882311F096E911C0772321F09EE8A2
:103B2000872F762F05C0662371F096E8862F70E008
:103B300060E02AF09A95660F771F881FDAF7880FE2
:103B40009695879597F90895990F0008550FAA0B38
:103B5000E0E8FEEF16161706E807F907C0F01216A0
:103B60001306E407F50798F0621B730B840B950BA3
:103B700039F40A2661F0232B242B252B21F40895F8
:103B80000A2609F4A140A6958FEF811D811D089595
:103B90000E94DB1D0C944C1E0E943E1E38F00E94B9
:103BA000451E20F0952311F00C94351E0C943B1EFD
:103BB00011240C94801E0E945D1E70F3959FC1F32A
:103BC000950F50E0551F629FF001729FBB27F00DCB
:103BD000B11D639FAA27F00DB11DAA1F649F662720
:103BE000B00DA11D661F829F2227B00DA11D621F6F
:103BF000739FB00DA11D621F839FA00D611D221F29
:103C0000749F3327A00D611D231F849F600D211D0C
:103C1000822F762F6A2F11249F5750409AF0F1F08F
:103C200088234AF0EE0FFF1FBB1F661F771F881FF8
:103C300091505040A9F79E3F510580F00C94351EDD
:103C40000C94801E5F3FE4F3983ED4F386957795FD
:103C50006795B795F795E7959F5FC1F7FE2B880F9E
:103C6000911D9695879597F9089597F99F6780E834
:103C700070E060E008959FEF80EC089500240A94BE
:103C80001616170618060906089500240A94121637
:103C90001306140605060895092E0394000C11F46A
:103CA000882352F0BB0F40F4BF2B11F460FF04C017
:103CB0006F5F7F4F8F4F9F4F089557FD9058440F70
:103CC000551F59F05F3F71F04795880F97FB991F7B
:103CD00061F09F3F79F08795089512161306140638
:103CE000551FF2CF4695F1DF08C0161617061806C5
:103CF000991FF1CF86957105610508940895E894A0
:103D0000BB2766277727CB0197F908952F923F921B
:103D10004F925F926F927F928F929F92AF92BF92DB
:103D2000CF92DF92EF92FF920F931F93CF93DF9387
:103D3000CDB7DEB7CA1BDB0B0FB6F894DEBF0FBEE4
:103D4000CDBF09942A88398848885F846E847D8431
:103D50008C849B84AA84B984C884DF80EE80FD8033
:103D60000C811B81AA81B981CE0FD11D0FB6F894A9
:103D7000DEBF0FBECDBFED010895A1E21A2EAA1B32
:103D8000BB1BFD010DC0AA1FBB1FEE1FFF1FA2170B
:103D9000B307E407F50720F0A21BB30BE40BF50B08
:103DA000661F771F881F991F1A9469F76095709591
:103DB000809590959B01AC01BD01CF01089597FBC3
:103DC000072E16F4009407D077FD09D00E94F31E49
:103DD00007FC05D03EF4909581959F4F089570950E
:103DE00061957F4F0895AA1BBB1B51E107C0AA1F15
:103DF000BB1FA617B70710F0A61BB70B881F991F8C
:103E00005A95A9F780959095BC01CD010895EE0FC4
:103E1000FF1F0590F491E02D09945058BB27AA2765
:103E20000E94251F0C944C1E0E943E1E38F00E94DA
:103E3000451E20F039F49F3F19F426F40C943B1EE4
:103E40000EF4E095E7FB0C94351EE92F0E945D1EF1
:103E500058F3BA17620773078407950720F079F4BF
:103E6000A6F50C947F1E0EF4E0950B2EBA2FA02D14
:103E70000B01B90190010C01CA01A0011124FF2717
:103E8000591B99F0593F50F4503E68F11A16F04012
:103E9000A22F232F342F4427585FF3CF4695379511
:103EA0002795A795F0405395C9F77EF41F16BA0BD6
:103EB000620B730B840BBAF09150A1F0FF0FBB1F84
:103EC000661F771F881FC2F70EC0BA0F621F731FCD
:103ED000841F48F4879577956795B795F7959E3F2A
:103EE00008F0B0CF9395880F08F09927EE0F9795BB
:103EF000879508950E943E1E60F080E891E009F4E5
:103F00009EEF0E94451E28F040E851E071F45EEFFC
:103F10000CC00C943B1E0C947F1EE92FE0780E948D
:103F20005D1E40F3092E052AB1F32617370748070F
:103F3000590738F00E2E07F8E02569F0E025E06417
:103F40000AC0EF6307F8009407FADB01B9019D018D
:103F5000DC01CA01AD01EF930E9403200E944C1EB8
:103F60000E94BD1F5F91552339F02BED3FE049E4DE
:103F700050FD49EC0C940E1F0895DF93DD27B92FF7
:103F8000BF7740E85FE31616170648075B0718F48B
:103F9000D92F0E94C0209F938F937F936F930E948D
:103FA0001621E8E6F0E00E9494200E944C1E2F911A
:103FB0003F914F915F910E94DB1DDD2351F090589E
:103FC000A2EA2AED3FE049EC5FE3D0785D270E944A
:103FD000251FDF910C944C1E0E9400200C944C1E57
:103FE0000E94451E58F00E943E1E40F029F45F3F9B
:103FF00029F00C94351E51110C94801E0C943B1E1C
:104000000E945D1E68F39923B1F3552391F3951B2C
:10401000550BBB27AA2762177307840738F09F5FE9
:104020005F4F220F331F441FAA1FA9F335D00E2E56
:104030003AF0E0E832D091505040E695001CCAF7C3
:104040002BD0FE2F29D0660F771F881FBB1F261786
:1040500037074807AB07B0E809F0BB0B802DBF015D
:10406000FF2793585F4F3AF09E3F510578F00C942C
:10407000351E0C94801E5F3FE4F3983ED4F3869582
:1040800077956795B795F7959F5FC9F7880F911D4D
:104090009695879597F90895E1E0660F771F881F39
:1040A000BB1F621773078407BA0720F0621B730BEC
:1040B000840BBA0BEE1F88F7E09508950E946520E7
:1040C0006894B1110C94801E08950E94651E88F0BA
:1040D0009F5798F0B92F9927B751B0F0E1F0660FCC
:1040E000771F881F991F1AF0BA95C9F714C0B1300D
:1040F00091F00E947F1EB1E008950C947F1E672FFF
:10410000782F8827B85F39F0B93FCCF3869577953B
:104110006795B395D9F73EF4909580957095619524
:104120007F4F8F4F9F4F0895DF93CF931F930F9330
:10413000FF92EF92DF927B018C01689406C0DA2E29
:10414000EF010E94DB1DFE01E894A59125913591B8
:1041500045915591A6F3EF010E94251FFE0197019D
:10416000A801DA9469F7DF90EF90FF900F911F910B
:10417000CF91DF9108950E94A41D08F48FEF089558
:104180009B01AC0160E070E080E89FE30C94EC1FC1
:104190009F930E9436210F9007FCEE5F0C945F21E5
:1041A00019F416F40C943B1E0C941F210E94651EFA
:1041B000B8F39923C9F3B6F39F57550B87FF0E94B5
:1041C0002D210024A0E640EA90018058569597954D
:1041D00028F4805C660F771F881F20F026173707AA
:1041E000480730F4621B730B840B202931294A2BBA
:1041F000A69517940794202531254A2758F7660F6E
:10420000771F881F20F026173707480730F4620B06
:10421000730B840B200D311D411DA09581F7B90151
:10422000842F9158880F9695879508959B01AC012E
:104230000C94C81D0E94A41D880B990B08959F3FE4
:1042400031F0915020F4879577956795B795880F51
:10425000911D9695879597F9089591505040660F56
:10426000771F881FD2F708950C943B1E0E94651E8D
:10427000D8F3E894E0E0BB279F57F0F02AED3FE049
:1042800049EC06C0EE0FBB0F661F771F881F28F092
:10429000B23A62077307840728F0B25A620B730BB5
:1042A000840BE3959A9572F7803830F49A95BB0F9A
:1042B000661F771F881FD2F790480C942121EF9337
:1042C000E0FF07C0A2EA2AED3FE049EC5FEB0E9465
:1042D000251F0E944C1E0F90039401FC9058E5E9A5
:1042E000F0E00C9473219F938F937F936F93FF93D0
:1042F000EF939B01AC010E94C81DEF91FF910E94BA
:1043000094202F913F914F915F910C94C81D0F9372
:104310001F93CF93DF938230910510F482E090E0F9
:10432000E091C803F091C90330E020E0B0E0A0E0E4
:10433000309799F42115310509F44AC0281B390B2F
:1043400024303105D8F58A819B816115710589F189
:10435000FB0193838283FE0111C040815181028160
:10436000138148175907E0F04817590799F4109737
:1043700061F012960C93129713961C933296CF010C
:10438000DF91CF911F910F9108950093C80310936F
:10439000C903F4CF2115310551F04217530738F006
:1043A000A901DB019A01BD01DF01F801C1CFEF01D5
:1043B000F9CF9093C9038093C803CDCFFE01E20FDC
:1043C000F31F819391932250310939832883D7CFEA
:1043D0002091C6033091C703232B41F420910C0197
:1043E00030910D013093C7032093C60320910A0139
:1043F00030910B012115310541F42DB73EB74091A5
:104400000E0150910F01241B350BE091C603F09172
:10441000C703E217F307A0F42E1B3F0B2817390739
:1044200078F0AC014E5F5F4F2417350748F04E0F10
:104430005F1F5093C7034093C603819391939FCF0F
:10444000F0E0E0E09CCFCF93DF930097E9F0FC0130
:10445000329713821282A091C803B091C903ED0173
:1044600030E020E01097A1F420813181820F931F6A
:104470002091C6033091C7032817390709F061C09E
:10448000F093C703E093C603DF91CF910895EA014B
:10449000CE17DF07E8F54A815B819E014115510582
:1044A000B1F7E901FB83EA8349915991C40FD51F04
:1044B000EC17FD0761F4808191810296840F951FAE
:1044C000E90199838883828193819B838A83F0E0C9
:1044D000E0E012968D919C9113970097B9F52D917C
:1044E0003C911197CD010296820F931F2091C60334
:1044F0003091C7032817390739F6309751F51092D4
:10450000C9031092C803B093C703A093C603BCCFDE
:10451000D383C28340815181840F951FC817D90767
:1045200061F44E5F5F4F88819981480F591F518315
:1045300040838A819B81938382832115310509F011
:10454000B0CFF093C903E093C8039ECFFD01DC0117
:10455000C0CF13821282D7CFB0E0A0E0E2EBF2E24C
:104560000C94881E8C01009751F4CB010E94872186
:104570008C01C801CDB7DEB7E0E10C94A41EFC01AC
:10458000E60FF71F9C0122503109E217F30708F4E8
:104590009DC0D901CD91DC911197C617D70798F02E
:1045A000C530D10530F3CE0104978617970708F37D
:1045B000C61BD70B2297C193D1936D937C93CF01E8
:1045C0000E942322D6CF5B01AC1ABD0A4C018C0E8F
:1045D0009D1EA091C803B091C903512C412CF12C10
:1045E000E12C109731F58091C6039091C70388158F
:1045F000990509F05CC04616570608F058C080912E
:104600000A0190910B01009741F48DB79EB740913C
:104610000E0150910F01841B950BE817F90708F064
:1046200055C0F093C703E093C603F901718360831B
:10463000A0CF8D919C91119712966C901297139622
:104640007C901397A815B90559F56C0142E0C40E8A
:10465000D11CCA14DB0420F1AC014A195B09DA0150
:104660001296159780F06282738251834083D9013C
:104670006D937C93E114F10471F0D7011396FC93D0
:10468000EE93129776CF22968C0F9D1FF90191839E
:104690008083F301EFCFF093C903E093C80369CFA0
:1046A0004816590608F42C017D01D3019ACFCB019D
:1046B0000E9487217C01009749F0AE01B8010E9459
:1046C0007623C8010E942322870153CF10E000E027
:1046D00050CFFB01DC0104C08D910190801921F4C1
:1046E00041505040C8F7881B990B0895FB01DC012D
:1046F00002C001900D9241505040D8F70895FB013F
:10470000DC0101900D920020E1F7089514E0CDE462
:10471000D4E004C0FE010E94071F2196CE34D107C9
:06472000C9F7F894FFCF79
:10472600D105D1050000803F01000000CA038000CA
:10473600000000007E06D205FF05CB0630060E06F9
:1047460022060000000077084A08250A20084308C8
:10475600300821080D0A004D50553630353020639B
:104766006F6E6E656374696F6E206661696C6564F1
:1047760000444D5020496E697469616C697A6174B0
:10478600696F6E206661696C65642028636F646575
:1047960020002900504155534500726F6C6C3A0059
:1047A6006E616E00696E66006F7666002C206F750E
:0647B600747075743A00F6
:00000001FF
